{
  "contractName": "DelegateSeer",
  "abi": [
    {
      "anonymous": false,
      "inputs": [
        {
          "indexed": false,
          "internalType": "uint8",
          "name": "version",
          "type": "uint8"
        }
      ],
      "name": "Initialized",
      "type": "event"
    },
    {
      "anonymous": false,
      "inputs": [
        {
          "indexed": true,
          "internalType": "address",
          "name": "previousOwner",
          "type": "address"
        },
        {
          "indexed": true,
          "internalType": "address",
          "name": "newOwner",
          "type": "address"
        }
      ],
      "name": "OwnershipTransferred",
      "type": "event"
    },
    {
      "anonymous": false,
      "inputs": [
        {
          "indexed": true,
          "internalType": "bytes32",
          "name": "role",
          "type": "bytes32"
        },
        {
          "indexed": true,
          "internalType": "bytes32",
          "name": "previousAdminRole",
          "type": "bytes32"
        },
        {
          "indexed": true,
          "internalType": "bytes32",
          "name": "newAdminRole",
          "type": "bytes32"
        }
      ],
      "name": "RoleAdminChanged",
      "type": "event"
    },
    {
      "anonymous": false,
      "inputs": [
        {
          "indexed": true,
          "internalType": "bytes32",
          "name": "role",
          "type": "bytes32"
        },
        {
          "indexed": true,
          "internalType": "address",
          "name": "account",
          "type": "address"
        },
        {
          "indexed": true,
          "internalType": "address",
          "name": "sender",
          "type": "address"
        }
      ],
      "name": "RoleGranted",
      "type": "event"
    },
    {
      "anonymous": false,
      "inputs": [
        {
          "indexed": true,
          "internalType": "bytes32",
          "name": "role",
          "type": "bytes32"
        },
        {
          "indexed": true,
          "internalType": "address",
          "name": "account",
          "type": "address"
        },
        {
          "indexed": true,
          "internalType": "address",
          "name": "sender",
          "type": "address"
        }
      ],
      "name": "RoleRevoked",
      "type": "event"
    },
    {
      "inputs": [],
      "name": "DEFAULT_ADMIN_ROLE",
      "outputs": [
        {
          "internalType": "bytes32",
          "name": "",
          "type": "bytes32"
        }
      ],
      "stateMutability": "view",
      "type": "function",
      "constant": true
    },
    {
      "inputs": [],
      "name": "SET_ASSET_ROLE",
      "outputs": [
        {
          "internalType": "bytes32",
          "name": "",
          "type": "bytes32"
        }
      ],
      "stateMutability": "view",
      "type": "function",
      "constant": true
    },
    {
      "inputs": [],
      "name": "SET_PRICE_ROLE",
      "outputs": [
        {
          "internalType": "bytes32",
          "name": "",
          "type": "bytes32"
        }
      ],
      "stateMutability": "view",
      "type": "function",
      "constant": true
    },
    {
      "inputs": [
        {
          "internalType": "bytes32",
          "name": "role",
          "type": "bytes32"
        }
      ],
      "name": "getRoleAdmin",
      "outputs": [
        {
          "internalType": "bytes32",
          "name": "",
          "type": "bytes32"
        }
      ],
      "stateMutability": "view",
      "type": "function",
      "constant": true
    },
    {
      "inputs": [
        {
          "internalType": "bytes32",
          "name": "role",
          "type": "bytes32"
        },
        {
          "internalType": "address",
          "name": "account",
          "type": "address"
        }
      ],
      "name": "grantRole",
      "outputs": [],
      "stateMutability": "nonpayable",
      "type": "function"
    },
    {
      "inputs": [
        {
          "internalType": "bytes32",
          "name": "role",
          "type": "bytes32"
        },
        {
          "internalType": "address",
          "name": "account",
          "type": "address"
        }
      ],
      "name": "hasRole",
      "outputs": [
        {
          "internalType": "bool",
          "name": "",
          "type": "bool"
        }
      ],
      "stateMutability": "view",
      "type": "function",
      "constant": true
    },
    {
      "inputs": [
        {
          "internalType": "uint256",
          "name": "",
          "type": "uint256"
        }
      ],
      "name": "indexAdressAsset",
      "outputs": [
        {
          "internalType": "address",
          "name": "",
          "type": "address"
        }
      ],
      "stateMutability": "view",
      "type": "function",
      "constant": true
    },
    {
      "inputs": [],
      "name": "owner",
      "outputs": [
        {
          "internalType": "address",
          "name": "",
          "type": "address"
        }
      ],
      "stateMutability": "view",
      "type": "function",
      "constant": true
    },
    {
      "inputs": [],
      "name": "renounceOwnership",
      "outputs": [],
      "stateMutability": "nonpayable",
      "type": "function"
    },
    {
      "inputs": [
        {
          "internalType": "bytes32",
          "name": "role",
          "type": "bytes32"
        },
        {
          "internalType": "address",
          "name": "account",
          "type": "address"
        }
      ],
      "name": "renounceRole",
      "outputs": [],
      "stateMutability": "nonpayable",
      "type": "function"
    },
    {
      "inputs": [
        {
          "internalType": "bytes32",
          "name": "role",
          "type": "bytes32"
        },
        {
          "internalType": "address",
          "name": "account",
          "type": "address"
        }
      ],
      "name": "revokeRole",
      "outputs": [],
      "stateMutability": "nonpayable",
      "type": "function"
    },
    {
      "inputs": [
        {
          "internalType": "bytes4",
          "name": "interfaceId",
          "type": "bytes4"
        }
      ],
      "name": "supportsInterface",
      "outputs": [
        {
          "internalType": "bool",
          "name": "",
          "type": "bool"
        }
      ],
      "stateMutability": "view",
      "type": "function",
      "constant": true
    },
    {
      "inputs": [
        {
          "internalType": "address",
          "name": "newOwner",
          "type": "address"
        }
      ],
      "name": "transferOwnership",
      "outputs": [],
      "stateMutability": "nonpayable",
      "type": "function"
    },
    {
      "inputs": [],
      "name": "initialize",
      "outputs": [],
      "stateMutability": "nonpayable",
      "type": "function"
    },
    {
      "inputs": [
        {
          "internalType": "address[]",
          "name": "_assets",
          "type": "address[]"
        }
      ],
      "name": "setAssets",
      "outputs": [],
      "stateMutability": "nonpayable",
      "type": "function"
    },
    {
      "inputs": [
        {
          "internalType": "address",
          "name": "_addrCalculate",
          "type": "address"
        }
      ],
      "name": "setCalculatePrice",
      "outputs": [],
      "stateMutability": "nonpayable",
      "type": "function"
    },
    {
      "inputs": [
        {
          "internalType": "uint8",
          "name": "_number",
          "type": "uint8"
        }
      ],
      "name": "setNumberAsset",
      "outputs": [],
      "stateMutability": "nonpayable",
      "type": "function"
    },
    {
      "inputs": [
        {
          "internalType": "address[]",
          "name": "assets",
          "type": "address[]"
        },
        {
          "internalType": "int256[]",
          "name": "prices",
          "type": "int256[]"
        }
      ],
      "name": "setAssetsPrice",
      "outputs": [],
      "stateMutability": "nonpayable",
      "type": "function"
    },
    {
      "inputs": [
        {
          "internalType": "uint256",
          "name": "_prices",
          "type": "uint256"
        }
      ],
      "name": "updatePrices",
      "outputs": [],
      "stateMutability": "nonpayable",
      "type": "function"
    }
  ],
  "bytecode": "0x608060405234801561001057600080fd5b50611542806100206000396000f3fe608060405234801561001057600080fd5b50600436106101215760003560e01c80638129fc1c116100ad578063b088d30811610071578063b088d30814610258578063d547741f14610281578063de21762514610294578063e9d57a87146102a7578063f2fde38b146102bc57600080fd5b80638129fc1c146101fd5780638da5cb5b1461020557806391d148541461022a578063a217fddf1461023d578063ae7e8d811461024557600080fd5b806345a828a7116100f457806345a828a7146101a7578063715018a6146101ba578063723cd041146101c257806374e805e9146101d55780637a19a607146101ea57600080fd5b806301ffc9a714610126578063248a9ca31461014e5780632f2ff15d1461017f57806336568abe14610194575b600080fd5b610139610134366004610f46565b6102cf565b60405190151581526020015b60405180910390f35b61017161015c366004610f70565b60009081526065602052604090206001015490565b604051908152602001610145565b61019261018d366004610fa0565b610306565b005b6101926101a2366004610fa0565b610330565b6101926101b5366004610fcc565b6103b3565b6101926103ee565b6101926101d0366004610fe7565b610454565b6101716000805160206114ed83398151915281565b6101926101f83660046110e7565b6104bd565b6101926105eb565b6097546001600160a01b03165b6040516001600160a01b039091168152602001610145565b610139610238366004610fa0565b61069b565b610171600081565b610192610253366004610f70565b6106c6565b610212610266366004610f70565b60cb602052600090815260409020546001600160a01b031681565b61019261028f366004610fa0565b61090b565b6101926102a23660046111a2565b610930565b6101716000805160206114cd83398151915281565b6101926102ca366004610fcc565b610a2c565b60006001600160e01b03198216637965db0b60e01b148061030057506301ffc9a760e01b6001600160e01b03198316145b92915050565b60008281526065602052604090206001015461032181610af4565b61032b8383610afe565b505050565b6001600160a01b03811633146103a55760405162461bcd60e51b815260206004820152602f60248201527f416363657373436f6e74726f6c3a2063616e206f6e6c792072656e6f756e636560448201526e103937b632b9903337b91039b2b63360891b60648201526084015b60405180910390fd5b6103af8282610b84565b5050565b6000805160206114cd8339815191526103cb81610af4565b5060cc80546001600160a01b0319166001600160a01b0392909216919091179055565b6097546001600160a01b031633146104485760405162461bcd60e51b815260206004820181905260248201527f4f776e61626c653a2063616c6c6572206973206e6f7420746865206f776e6572604482015260640161039c565b6104526000610beb565b565b6000805160206114cd83398151915261046c81610af4565b6040805180820190915260018152600d60fa1b602082015260ff83166104a55760405162461bcd60e51b815260040161039c919061120b565b505060c9805460ff191660ff92909216919091179055565b6000805160206114ed8339815191526104d581610af4565b60005b83518110156105e5578281815181106104f3576104f361123e565b602002602001015160001415610508576105d3565b60ca600085838151811061051e5761051e61123e565b60200260200101516001600160a01b03166001600160a01b0316815260200190815260200160002060009054906101000a90046001600160a01b03166001600160a01b031663a87a20ce84838151811061057a5761057a61123e565b60200260200101516040518263ffffffff1660e01b81526004016105a091815260200190565b600060405180830381600087803b1580156105ba57600080fd5b505af11580156105ce573d6000803e3d6000fd5b505050505b806105dd8161126a565b9150506104d8565b50505050565b60006105f76001610c3d565b9050801561060f576000805461ff0019166101001790555b610617610cca565b610622600033610d35565b61063a6000805160206114ed83398151915233610d35565b6106526000805160206114cd83398151915233610d35565b8015610698576000805461ff0019169055604051600181527f7f26b83ff96e1f2b6a682f133852f6798a09c465da95921460cefb38474024989060200160405180910390a15b50565b60009182526065602090815260408084206001600160a01b0393909316845291905290205460ff1690565b6000805160206114ed8339815191526106de81610af4565b60cc546040516261a76960e81b8152600481018490526000916001600160a01b0316906361a7690090602401600060405180830381865afa158015610727573d6000803e3d6000fd5b505050506040513d6000823e601f3d908101601f1916820160405261074f9190810190611285565b905060005b81518160ff1610156105e557818160ff16815181106107755761077561123e565b60200260200101516000141561078a576108f9565b60ff8116600081815260cb60205260409020546001600160a01b03169060031415610856576001600160a01b03808216600090815260ca6020526040902054845191169063a87a20ce90859060ff86169081106107e9576107e961123e565b602002602001015164e8d4a510006108019190611316565b6040518263ffffffff1660e01b815260040161081f91815260200190565b600060405180830381600087803b15801561083957600080fd5b505af115801561084d573d6000803e3d6000fd5b505050506108f7565b6001600160a01b03808216600090815260ca6020526040902054845191169063a87a20ce90859060ff86169081106108905761089061123e565b6020026020010151620f42406108a69190611335565b6040518263ffffffff1660e01b81526004016108c491815260200190565b600060405180830381600087803b1580156108de57600080fd5b505af11580156108f2573d6000803e3d6000fd5b505050505b505b80610903816113ba565b915050610754565b60008281526065602052604090206001015461092681610af4565b61032b8383610b84565b6000805160206114cd83398151915261094881610af4565b60005b825181101561032b578281815181106109665761096661123e565b602002602001015160ca60008584815181106109845761098461123e565b60200260200101516001600160a01b03166001600160a01b0316815260200190815260200160002060006101000a8154816001600160a01b0302191690836001600160a01b031602179055508281815181106109e2576109e261123e565b602090810291909101810151600083815260cb909252604090912080546001600160a01b0319166001600160a01b0390921691909117905580610a248161126a565b91505061094b565b6097546001600160a01b03163314610a865760405162461bcd60e51b815260206004820181905260248201527f4f776e61626c653a2063616c6c6572206973206e6f7420746865206f776e6572604482015260640161039c565b6001600160a01b038116610aeb5760405162461bcd60e51b815260206004820152602660248201527f4f776e61626c653a206e6577206f776e657220697320746865207a65726f206160448201526564647265737360d01b606482015260840161039c565b61069881610beb565b6106988133610d3f565b610b08828261069b565b6103af5760008281526065602090815260408083206001600160a01b03851684529091529020805460ff19166001179055610b403390565b6001600160a01b0316816001600160a01b0316837f2f8788117e7eff1d82e926ec794901d17c78024a50270940304540a733656f0d60405160405180910390a45050565b610b8e828261069b565b156103af5760008281526065602090815260408083206001600160a01b0385168085529252808320805460ff1916905551339285917ff6391f5c32d9c69d2a47ea670b442974b53935d1edc7fd64eb21e047a839171b9190a45050565b609780546001600160a01b038381166001600160a01b0319831681179093556040519116919082907f8be0079c531659141344cd1fd0a4f28419497f9722a3daafe3b4186f6b6457e090600090a35050565b60008054610100900460ff1615610c84578160ff166001148015610c605750303b155b610c7c5760405162461bcd60e51b815260040161039c906113da565b506000919050565b60005460ff808416911610610cab5760405162461bcd60e51b815260040161039c906113da565b506000805460ff191660ff92909216919091179055600190565b919050565b600054610100900460ff166104525760405162461bcd60e51b815260206004820152602b60248201527f496e697469616c697a61626c653a20636f6e7472616374206973206e6f74206960448201526a6e697469616c697a696e6760a81b606482015260840161039c565b6103af8282610afe565b610d49828261069b565b6103af57610d61816001600160a01b03166014610da3565b610d6c836020610da3565b604051602001610d7d929190611428565b60408051601f198184030181529082905262461bcd60e51b825261039c9160040161120b565b60606000610db2836002611316565b610dbd90600261149d565b67ffffffffffffffff811115610dd557610dd561100a565b6040519080825280601f01601f191660200182016040528015610dff576020820181803683370190505b509050600360fc1b81600081518110610e1a57610e1a61123e565b60200101906001600160f81b031916908160001a905350600f60fb1b81600181518110610e4957610e4961123e565b60200101906001600160f81b031916908160001a9053506000610e6d846002611316565b610e7890600161149d565b90505b6001811115610ef0576f181899199a1a9b1b9c1cb0b131b232b360811b85600f1660108110610eac57610eac61123e565b1a60f81b828281518110610ec257610ec261123e565b60200101906001600160f81b031916908160001a90535060049490941c93610ee9816114b5565b9050610e7b565b508315610f3f5760405162461bcd60e51b815260206004820181905260248201527f537472696e67733a20686578206c656e67746820696e73756666696369656e74604482015260640161039c565b9392505050565b600060208284031215610f5857600080fd5b81356001600160e01b031981168114610f3f57600080fd5b600060208284031215610f8257600080fd5b5035919050565b80356001600160a01b0381168114610cc557600080fd5b60008060408385031215610fb357600080fd5b82359150610fc360208401610f89565b90509250929050565b600060208284031215610fde57600080fd5b610f3f82610f89565b600060208284031215610ff957600080fd5b813560ff81168114610f3f57600080fd5b634e487b7160e01b600052604160045260246000fd5b604051601f8201601f1916810167ffffffffffffffff811182821017156110495761104961100a565b604052919050565b600067ffffffffffffffff82111561106b5761106b61100a565b5060051b60200190565b600082601f83011261108657600080fd5b8135602061109b61109683611051565b611020565b82815260059290921b840181019181810190868411156110ba57600080fd5b8286015b848110156110dc576110cf81610f89565b83529183019183016110be565b509695505050505050565b600080604083850312156110fa57600080fd5b823567ffffffffffffffff8082111561111257600080fd5b61111e86838701611075565b935060209150818501358181111561113557600080fd5b85019050601f8101861361114857600080fd5b803561115661109682611051565b81815260059190911b8201830190838101908883111561117557600080fd5b928401925b828410156111935783358252928401929084019061117a565b80955050505050509250929050565b6000602082840312156111b457600080fd5b813567ffffffffffffffff8111156111cb57600080fd5b6111d784828501611075565b949350505050565b60005b838110156111fa5781810151838201526020016111e2565b838111156105e55750506000910152565b602081526000825180602084015261122a8160408501602087016111df565b601f01601f19169190910160400192915050565b634e487b7160e01b600052603260045260246000fd5b634e487b7160e01b600052601160045260246000fd5b600060001982141561127e5761127e611254565b5060010190565b6000602080838503121561129857600080fd5b825167ffffffffffffffff8111156112af57600080fd5b8301601f810185136112c057600080fd5b80516112ce61109682611051565b81815260059190911b820183019083810190878311156112ed57600080fd5b928401925b8284101561130b578351825292840192908401906112f2565b979650505050505050565b600081600019048311821515161561133057611330611254565b500290565b60006001600160ff1b038184138284138082168684048611161561135b5761135b611254565b600160ff1b600087128281168783058912161561137a5761137a611254565b6000871292508782058712848416161561139657611396611254565b878505871281841616156113ac576113ac611254565b505050929093029392505050565b600060ff821660ff8114156113d1576113d1611254565b60010192915050565b6020808252602e908201527f496e697469616c697a61626c653a20636f6e747261637420697320616c72656160408201526d191e481a5b9a5d1a585b1a5e995960921b606082015260800190565b7f416363657373436f6e74726f6c3a206163636f756e74200000000000000000008152600083516114608160178501602088016111df565b7001034b99036b4b9b9b4b733903937b6329607d1b60179184019182015283516114918160288401602088016111df565b01602801949350505050565b600082198211156114b0576114b0611254565b500190565b6000816114c4576114c4611254565b50600019019056fe44aabcfc5881ba432c01a4847f5a748ae4b67aec352e00a6358dc53f52464ffd415cb709e73494ed53475231a09b6302063bb747def39d02d8a6002d338f9436a264697066735822122095484bd57c6736a24a6a4371c72d8cd79956aad004fb00532f07b431d3b9833a64736f6c634300080a0033",
  "immutableReferences": {},
  "source": "// SPDX-License-Identifier: BUSL-1.1\npragma solidity 0.8.10;\n\nimport './SeerOracle.sol';\nimport './CalculatePrice.sol';\nimport {Errors} from '../libraries/helpers/Errors.sol';\nimport {IDelegateSeer} from '../interfaces/IDelegateSeer.sol';\n\nimport \"@openzeppelin/contracts-upgradeable/access/AccessControlUpgradeable.sol\";\nimport \"@openzeppelin/contracts-upgradeable/access/OwnableUpgradeable.sol\";\n\n/**\n    * @title DelegateSeer\n    * @author ESOLLABS\n    * @notice Contract to set asset prices, manage price sources.\n*/\ncontract DelegateSeer is \n  AccessControlUpgradeable,\n  OwnableUpgradeable,\n  IDelegateSeer\n{\n    uint8 numberAsset;\n    bytes32 public constant SET_PRICE_ROLE = keccak256(\"SET_PRICE_ROLE\");\n    bytes32 public constant SET_ASSET_ROLE = keccak256(\"SET_ASSET_ROLE\");\n    \n    // mapping address seer contract => SeerOracle\n    mapping(address => SeerOracle) private assetsSources;\n    // mapping index asset => address contract SeerOracle\n    mapping(uint256 => address) public indexAdressAsset;\n\n    // mapping address CalculatePrice contract => SeerOracle\n    CalculatePrice private calculatePrice;\n\n    /// init access roles\n    function initialize() external initializer {\n        __AccessControl_init();\n        _setupRole(DEFAULT_ADMIN_ROLE, msg.sender);\n        _setupRole(SET_PRICE_ROLE, msg.sender);\n        _setupRole(SET_ASSET_ROLE, msg.sender); \n    }\n    \n    /// @inheritdoc IDelegateSeer\n    function setAssets(address[] memory _assets) \n        external override \n        onlyRole(SET_ASSET_ROLE) \n    {\n        for (uint256 i = 0; i < _assets.length; i++) {\n            assetsSources[_assets[i]] = SeerOracle(_assets[i]);\n            indexAdressAsset[i] = _assets[i];\n        }\n    }\n    \n    /// @inheritdoc IDelegateSeer\n    function setCalculatePrice(address _addrCalculate) \n        external  \n        onlyRole(SET_ASSET_ROLE) \n    {\n        calculatePrice = CalculatePrice(_addrCalculate);\n    }\n\n    /// @inheritdoc IDelegateSeer\n    function setNumberAsset(uint8 _number) \n        external override \n        onlyRole(SET_ASSET_ROLE) \n    {\n        require(_number > 0, Errors.NUMBER_MUST_BE_GREATER_THAN_ZERO);\n        numberAsset = _number;\n    }\n\n    /// @inheritdoc IDelegateSeer\n    function setAssetsPrice(address[] memory assets, int256[] memory prices) \n        external override\n        onlyRole(SET_PRICE_ROLE) \n    {\n        for (uint256 i = 0; i < assets.length; i++) {\n            if(prices[i] == 0) {\n                continue;\n            }\n            assetsSources[assets[i]].updateAnswer(prices[i]);\n\n        }\n    }\n\n    /// @inheritdoc IDelegateSeer\n    function updatePrices(uint256 _prices) \n        external override \n        onlyRole(SET_PRICE_ROLE) \n    {\n        // define with BE, max is 4 asssets with 0: vetho , 1: vet, 2: vebank, 3:veusd\n        uint256[] memory _results = calculatePrice.decode(_prices);\n        for (uint8 i = 0; i < _results.length; i++) {\n            if (int256(_results[i]) == 0){\n                continue;\n            }\n            // [TODO] update price decimal by bitwase\n            address _addrAsset = indexAdressAsset[i];\n            if (i == 3) { // index VEUSD\n                assetsSources[_addrAsset].updateAnswer(int256(_results[i] * 10**12));\n            } else {\n                assetsSources[_addrAsset].updateAnswer(int256(_results[i]) * 10**6);\n            }\n        } \n    }\n}\n",
  "sourcePath": "/Users/macos/Desktop/rinz/priceOracle/smc-price-oracle/contracts/protocol/DelegateSeer.sol",
  "compiler": {
    "name": "solc",
    "version": "0.8.10+commit.fc410830.Emscripten.clang"
  },
  "schemaVersion": "3.4.7",
  "updatedAt": "2022-05-21T03:12:52.542Z",
  "networkType": "ethereum",
  "devdoc": {
    "author": "ESOLLABS",
    "kind": "dev",
    "methods": {
      "getRoleAdmin(bytes32)": {
        "details": "Returns the admin role that controls `role`. See {grantRole} and {revokeRole}. To change a role's admin, use {_setRoleAdmin}."
      },
      "grantRole(bytes32,address)": {
        "details": "Grants `role` to `account`. If `account` had not been already granted `role`, emits a {RoleGranted} event. Requirements: - the caller must have ``role``'s admin role."
      },
      "hasRole(bytes32,address)": {
        "details": "Returns `true` if `account` has been granted `role`."
      },
      "owner()": {
        "details": "Returns the address of the current owner."
      },
      "renounceOwnership()": {
        "details": "Leaves the contract without owner. It will not be possible to call `onlyOwner` functions anymore. Can only be called by the current owner. NOTE: Renouncing ownership will leave the contract without an owner, thereby removing any functionality that is only available to the owner."
      },
      "renounceRole(bytes32,address)": {
        "details": "Revokes `role` from the calling account. Roles are often managed via {grantRole} and {revokeRole}: this function's purpose is to provide a mechanism for accounts to lose their privileges if they are compromised (such as when a trusted device is misplaced). If the calling account had been revoked `role`, emits a {RoleRevoked} event. Requirements: - the caller must be `account`."
      },
      "revokeRole(bytes32,address)": {
        "details": "Revokes `role` from `account`. If `account` had been granted `role`, emits a {RoleRevoked} event. Requirements: - the caller must have ``role``'s admin role."
      },
      "setAssets(address[])": {
        "params": {
          "assets": "Assets address list.*"
        }
      },
      "setAssetsPrice(address[],int256[])": {
        "params": {
          "assets": "Assets address list.",
          "prices": "List of prices corresponding to the assets address.*"
        }
      },
      "setNumberAsset(uint8)": {
        "params": {
          "_number": "Number asset.*"
        }
      },
      "supportsInterface(bytes4)": {
        "details": "See {IERC165-supportsInterface}."
      },
      "transferOwnership(address)": {
        "details": "Transfers ownership of the contract to a new account (`newOwner`). Can only be called by the current owner."
      },
      "updatePrices(uint256)": {
        "params": {
          "prices": "List of prices corresponding to the assets address.*"
        }
      }
    },
    "title": "DelegateSeer",
    "version": 1
  },
  "userdoc": {
    "kind": "user",
    "methods": {
      "initialize()": {
        "notice": "init access roles"
      },
      "setAssets(address[])": {
        "notice": "Mapping address asset to contract SeerOracle."
      },
      "setAssetsPrice(address[],int256[])": {
        "notice": "Update price for assets."
      },
      "setNumberAsset(uint8)": {
        "notice": "Update number assets."
      },
      "updatePrices(uint256)": {
        "notice": "Update price for assets."
      }
    },
    "notice": "Contract to set asset prices, manage price sources.",
    "version": 1
  }
}